{"abi":[{"type":"constructor","inputs":[],"stateMutability":"nonpayable"},{"type":"function","name":"addCampaignCandidate","inputs":[{"name":"_name","type":"string","internalType":"string"},{"name":"_campaign","type":"string","internalType":"string"}],"outputs":[],"stateMutability":"nonpayable"},{"type":"function","name":"addCandidate","inputs":[{"name":"_name","type":"string","internalType":"string"},{"name":"_description","type":"string","internalType":"string"},{"name":"_feature","type":"string","internalType":"string"}],"outputs":[],"stateMutability":"nonpayable"},{"type":"function","name":"admins","inputs":[{"name":"","type":"address","internalType":"address"}],"outputs":[{"name":"","type":"bool","internalType":"bool"}],"stateMutability":"view"},{"type":"function","name":"createCampaign","inputs":[{"name":"_startTime","type":"uint104","internalType":"uint104"},{"name":"_endTime","type":"uint104","internalType":"uint104"},{"name":"_name","type":"string","internalType":"string"},{"name":"_reason","type":"string","internalType":"string"},{"name":"initial","type":"string","internalType":"string"}],"outputs":[],"stateMutability":"nonpayable"},{"type":"function","name":"deletCandidate","inputs":[{"name":"_name","type":"string","internalType":"string"}],"outputs":[],"stateMutability":"nonpayable"},{"type":"function","name":"deleteCampaign","inputs":[{"name":"_name","type":"string","internalType":"string"}],"outputs":[],"stateMutability":"nonpayable"},{"type":"function","name":"getCandidateVotes","inputs":[{"name":"_name","type":"string","internalType":"string"}],"outputs":[{"name":"","type":"uint256","internalType":"uint256"}],"stateMutability":"view"},{"type":"function","name":"isAdmin","inputs":[{"name":"_address","type":"address","internalType":"address"}],"outputs":[{"name":"","type":"bool","internalType":"bool"}],"stateMutability":"view"},{"type":"function","name":"makeAdmin","inputs":[{"name":"_newAdmin","type":"address","internalType":"address"}],"outputs":[],"stateMutability":"nonpayable"},{"type":"function","name":"owner","inputs":[],"outputs":[{"name":"","type":"address","internalType":"address"}],"stateMutability":"view"},{"type":"function","name":"vote","inputs":[{"name":"_name","type":"string","internalType":"string"}],"outputs":[],"stateMutability":"nonpayable"}],"bytecode":{"object":"0x6080604052348015600e575f5ffd5b50335f5f6101000a81548173ffffffffffffffffffffffffffffffffffffffff021916908373ffffffffffffffffffffffffffffffffffffffff1602179055506115198061005b5f395ff3fe608060405234801561000f575f5ffd5b50600436106100a7575f3560e01c8063472905ca1161006f578063472905ca1461015f57806377adfc641461017b5780638da5cb5b14610197578063ad71f8dc146101b5578063e962414f146101d1578063fc36e15b14610201576100a7565b8063061e245b146100ab57806324d7806c146100c757806324e68e61146100f757806331d493f114610113578063429b62e51461012f575b5f5ffd5b6100c560048036038101906100c09190610be6565b61021d565b005b6100e160048036038101906100dc9190610c87565b6102e2565b6040516100ee9190610ccc565b60405180910390f35b610111600480360381019061010c9190610d27565b610334565b005b61012d60048036038101906101289190610df2565b61048b565b005b61014960048036038101906101449190610c87565b6105bc565b6040516101569190610ccc565b60405180910390f35b61017960048036038101906101749190610c87565b6105d9565b005b61019560048036038101906101909190610be6565b61070f565b005b61019f61080c565b6040516101ac9190610e77565b60405180910390f35b6101cf60048036038101906101ca9190610e90565b610830565b005b6101eb60048036038101906101e69190610be6565b6108c1565b6040516101f89190610f4c565b60405180910390f35b61021b60048036038101906102169190610be6565b610959565b005b5f60028260405161022e9190610fb7565b90815260200160405180910390205f01805461024990610ffa565b90501161028b576040517f08c379a000000000000000000000000000000000000000000000000000000000815260040161028290611084565b60405180910390fd5b60028160405161029b9190610fb7565b90815260200160405180910390205f5f82015f6102b89190610a00565b600182015f6102c79190610a00565b600282015f6102d69190610a00565b600382015f9055505050565b5f60015f8373ffffffffffffffffffffffffffffffffffffffff1673ffffffffffffffffffffffffffffffffffffffff1681526020019081526020015f205f9054906101000a900460ff169050919050565b5f6002826040516103459190610fb7565b90815260200160405180910390205f01805461036090610ffa565b9050116103a2576040517f08c379a0000000000000000000000000000000000000000000000000000000008152600401610399906110ec565b60405180910390fd5b5f6003846040516103b39190610fb7565b9081526020016040518091039020905083815f0190816103d391906112aa565b5085816001015f6101000a8154816cffffffffffffffffffffffffff02191690836cffffffffffffffffffffffffff1602179055508481600101600d6101000a8154816cffffffffffffffffffffffffff02191690836cffffffffffffffffffffffffff1602179055508281600301908161044e91906112aa565b508060020182908060018154018082558091505060019003905f5260205f20015f90919091909150908161048291906112aa565b50505050505050565b5f60028360405161049c9190610fb7565b90815260200160405180910390205f0180546104b790610ffa565b9050116104f9576040517f08c379a00000000000000000000000000000000000000000000000000000000081526004016104f090611084565b60405180910390fd5b5f60038260405161050a9190610fb7565b90815260200160405180910390205f01805461052590610ffa565b905011610567576040517f08c379a000000000000000000000000000000000000000000000000000000000815260040161055e906113c3565b60405180910390fd5b6003816040516105779190610fb7565b908152602001604051809103902060020182908060018154018082558091505060019003905f5260205f20015f9091909190915090816105b791906112aa565b505050565b6001602052805f5260405f205f915054906101000a900460ff1681565b5f5f9054906101000a900473ffffffffffffffffffffffffffffffffffffffff1673ffffffffffffffffffffffffffffffffffffffff163373ffffffffffffffffffffffffffffffffffffffff161480610679575060015f3373ffffffffffffffffffffffffffffffffffffffff1673ffffffffffffffffffffffffffffffffffffffff1681526020019081526020015f205f9054906101000a900460ff165b6106b8576040517f08c379a00000000000000000000000000000000000000000000000000000000081526004016106af90611451565b60405180910390fd5b6001805f8373ffffffffffffffffffffffffffffffffffffffff1673ffffffffffffffffffffffffffffffffffffffff1681526020019081526020015f205f6101000a81548160ff02191690831515021790555050565b5f6003826040516107209190610fb7565b90815260200160405180910390205f01805461073b90610ffa565b90501161077d576040517f08c379a0000000000000000000000000000000000000000000000000000000008152600401610774906113c3565b60405180910390fd5b60038160405161078d9190610fb7565b90815260200160405180910390205f5f82015f6107aa9190610a00565b600182015f6101000a8154906cffffffffffffffffffffffffff021916905560018201600d6101000a8154906cffffffffffffffffffffffffff0219169055600282015f6107f89190610a3d565b600382015f6108079190610a00565b505050565b5f5f9054906101000a900473ffffffffffffffffffffffffffffffffffffffff1681565b60405180608001604052808481526020018381526020018281526020015f8152506002846040516108619190610fb7565b90815260200160405180910390205f820151815f01908161088291906112aa565b50602082015181600101908161089891906112aa565b5060408201518160020190816108ae91906112aa565b5060608201518160030155905050505050565b5f5f6002836040516108d39190610fb7565b90815260200160405180910390205f0180546108ee90610ffa565b905011610930576040517f08c379a000000000000000000000000000000000000000000000000000000000815260040161092790611084565b60405180910390fd5b6002826040516109409190610fb7565b9081526020016040518091039020600301549050919050565b5f60028260405161096a9190610fb7565b90815260200160405180910390205f01805461098590610ffa565b9050116109c7576040517f08c379a00000000000000000000000000000000000000000000000000000000081526004016109be90611084565b60405180910390fd5b6002816040516109d79190610fb7565b90815260200160405180910390206003015f8154809291906109f89061149c565b919050555050565b508054610a0c90610ffa565b5f825580601f10610a1d5750610a3a565b601f0160209004905f5260205f2090810190610a399190610a5b565b5b50565b5080545f8255905f5260205f2090810190610a589190610a76565b50565b5b80821115610a72575f815f905550600101610a5c565b5090565b5b80821115610a95575f8181610a8c9190610a00565b50600101610a77565b5090565b5f604051905090565b5f5ffd5b5f5ffd5b5f5ffd5b5f5ffd5b5f601f19601f8301169050919050565b7f4e487b71000000000000000000000000000000000000000000000000000000005f52604160045260245ffd5b610af882610ab2565b810181811067ffffffffffffffff82111715610b1757610b16610ac2565b5b80604052505050565b5f610b29610a99565b9050610b358282610aef565b919050565b5f67ffffffffffffffff821115610b5457610b53610ac2565b5b610b5d82610ab2565b9050602081019050919050565b828183375f83830152505050565b5f610b8a610b8584610b3a565b610b20565b905082815260208101848484011115610ba657610ba5610aae565b5b610bb1848285610b6a565b509392505050565b5f82601f830112610bcd57610bcc610aaa565b5b8135610bdd848260208601610b78565b91505092915050565b5f60208284031215610bfb57610bfa610aa2565b5b5f82013567ffffffffffffffff811115610c1857610c17610aa6565b5b610c2484828501610bb9565b91505092915050565b5f73ffffffffffffffffffffffffffffffffffffffff82169050919050565b5f610c5682610c2d565b9050919050565b610c6681610c4c565b8114610c70575f5ffd5b50565b5f81359050610c8181610c5d565b92915050565b5f60208284031215610c9c57610c9b610aa2565b5b5f610ca984828501610c73565b91505092915050565b5f8115159050919050565b610cc681610cb2565b82525050565b5f602082019050610cdf5f830184610cbd565b92915050565b5f6cffffffffffffffffffffffffff82169050919050565b610d0681610ce5565b8114610d10575f5ffd5b50565b5f81359050610d2181610cfd565b92915050565b5f5f5f5f5f60a08688031215610d4057610d3f610aa2565b5b5f610d4d88828901610d13565b9550506020610d5e88828901610d13565b945050604086013567ffffffffffffffff811115610d7f57610d7e610aa6565b5b610d8b88828901610bb9565b935050606086013567ffffffffffffffff811115610dac57610dab610aa6565b5b610db888828901610bb9565b925050608086013567ffffffffffffffff811115610dd957610dd8610aa6565b5b610de588828901610bb9565b9150509295509295909350565b5f5f60408385031215610e0857610e07610aa2565b5b5f83013567ffffffffffffffff811115610e2557610e24610aa6565b5b610e3185828601610bb9565b925050602083013567ffffffffffffffff811115610e5257610e51610aa6565b5b610e5e85828601610bb9565b9150509250929050565b610e7181610c4c565b82525050565b5f602082019050610e8a5f830184610e68565b92915050565b5f5f5f60608486031215610ea757610ea6610aa2565b5b5f84013567ffffffffffffffff811115610ec457610ec3610aa6565b5b610ed086828701610bb9565b935050602084013567ffffffffffffffff811115610ef157610ef0610aa6565b5b610efd86828701610bb9565b925050604084013567ffffffffffffffff811115610f1e57610f1d610aa6565b5b610f2a86828701610bb9565b9150509250925092565b5f819050919050565b610f4681610f34565b82525050565b5f602082019050610f5f5f830184610f3d565b92915050565b5f81519050919050565b5f81905092915050565b8281835e5f83830152505050565b5f610f9182610f65565b610f9b8185610f6f565b9350610fab818560208601610f79565b80840191505092915050565b5f610fc28284610f87565b915081905092915050565b7f4e487b71000000000000000000000000000000000000000000000000000000005f52602260045260245ffd5b5f600282049050600182168061101157607f821691505b60208210810361102457611023610fcd565b5b50919050565b5f82825260208201905092915050565b7f43616e64696461746520646f6573206e6f7420657869737400000000000000005f82015250565b5f61106e60188361102a565b91506110798261103a565b602082019050919050565b5f6020820190508181035f83015261109b81611062565b9050919050565b7f696e697469616c20646f6573206e6f74206578697374000000000000000000005f82015250565b5f6110d660168361102a565b91506110e1826110a2565b602082019050919050565b5f6020820190508181035f830152611103816110ca565b9050919050565b5f819050815f5260205f209050919050565b5f6020601f8301049050919050565b5f82821b905092915050565b5f600883026111667fffffffffffffffffffffffffffffffffffffffffffffffffffffffffffffffff8261112b565b611170868361112b565b95508019841693508086168417925050509392505050565b5f819050919050565b5f6111ab6111a66111a184610f34565b611188565b610f34565b9050919050565b5f819050919050565b6111c483611191565b6111d86111d0826111b2565b848454611137565b825550505050565b5f5f905090565b6111ef6111e0565b6111fa8184846111bb565b505050565b5b8181101561121d576112125f826111e7565b600181019050611200565b5050565b601f821115611262576112338161110a565b61123c8461111c565b8101602085101561124b578190505b61125f6112578561111c565b8301826111ff565b50505b505050565b5f82821c905092915050565b5f6112825f1984600802611267565b1980831691505092915050565b5f61129a8383611273565b9150826002028217905092915050565b6112b382610f65565b67ffffffffffffffff8111156112cc576112cb610ac2565b5b6112d68254610ffa565b6112e1828285611221565b5f60209050601f831160018114611312575f8415611300578287015190505b61130a858261128f565b865550611371565b601f1984166113208661110a565b5f5b8281101561134757848901518255600182019150602085019450602081019050611322565b868310156113645784890151611360601f891682611273565b8355505b6001600288020188555050505b505050505050565b7f43616d706169676e20646f6573206e6f742065786973740000000000000000005f82015250565b5f6113ad60178361102a565b91506113b882611379565b602082019050919050565b5f6020820190508181035f8301526113da816113a1565b9050919050565b7f4f6e6c79206f776e6572206f722061646d696e732063616e206d616b652061645f8201527f6d696e0000000000000000000000000000000000000000000000000000000000602082015250565b5f61143b60238361102a565b9150611446826113e1565b604082019050919050565b5f6020820190508181035f8301526114688161142f565b9050919050565b7f4e487b71000000000000000000000000000000000000000000000000000000005f52601160045260245ffd5b5f6114a682610f34565b91507fffffffffffffffffffffffffffffffffffffffffffffffffffffffffffffffff82036114d8576114d761146f565b5b60018201905091905056fea26469706673582212208e823527124242b17bb0d436146c6402ef94250f06d742e9ec6de2e7766b898a64736f6c634300081e0033","linkReferences":{}},"methodIdentifiers":{"addCampaignCandidate(string,string)":"31d493f1","addCandidate(string,string,string)":"ad71f8dc","admins(address)":"429b62e5","createCampaign(uint104,uint104,string,string,string)":"24e68e61","deletCandidate(string)":"061e245b","deleteCampaign(string)":"77adfc64","getCandidateVotes(string)":"e962414f","isAdmin(address)":"24d7806c","makeAdmin(address)":"472905ca","owner()":"8da5cb5b","vote(string)":"fc36e15b"},"id":0}