{"abi":[{"type":"constructor","inputs":[],"stateMutability":"nonpayable"},{"type":"function","name":"addCampaignCandidate","inputs":[{"name":"_name","type":"string","internalType":"string"},{"name":"_campaign","type":"string","internalType":"string"}],"outputs":[],"stateMutability":"nonpayable"},{"type":"function","name":"addCandidate","inputs":[{"name":"_name","type":"string","internalType":"string"},{"name":"_description","type":"string","internalType":"string"},{"name":"_feature","type":"string","internalType":"string"}],"outputs":[],"stateMutability":"nonpayable"},{"type":"function","name":"createCampaign","inputs":[{"name":"_startTime","type":"uint104","internalType":"uint104"},{"name":"_endTime","type":"uint104","internalType":"uint104"},{"name":"_name","type":"string","internalType":"string"},{"name":"_reason","type":"string","internalType":"string"},{"name":"initail","type":"string","internalType":"string"}],"outputs":[],"stateMutability":"nonpayable"},{"type":"function","name":"isAdmin","inputs":[{"name":"_address","type":"address","internalType":"address"}],"outputs":[{"name":"","type":"bool","internalType":"bool"}],"stateMutability":"view"},{"type":"function","name":"makeAdmin","inputs":[{"name":"_newAdmin","type":"address","internalType":"address"}],"outputs":[],"stateMutability":"nonpayable"},{"type":"function","name":"owner","inputs":[],"outputs":[{"name":"","type":"address","internalType":"address"}],"stateMutability":"view"}],"bytecode":{"object":"0x6080604052348015600e575f5ffd5b50335f5f6101000a81548173ffffffffffffffffffffffffffffffffffffffff021916908373ffffffffffffffffffffffffffffffffffffffff160217905550610f848061005b5f395ff3fe608060405234801561000f575f5ffd5b5060043610610060575f3560e01c806324d7806c1461006457806324e68e611461009457806331d493f1146100b0578063472905ca146100cc5780638da5cb5b146100e8578063ad71f8dc14610106575b5f5ffd5b61007e60048036038101906100799190610652565b610122565b60405161008b9190610697565b60405180910390f35b6100ae60048036038101906100a9919061082e565b610174565b005b6100ca60048036038101906100c591906108f9565b6102cb565b005b6100e660048036038101906100e19190610652565b6103fc565b005b6100f0610532565b6040516100fd919061097e565b60405180910390f35b610120600480360381019061011b9190610997565b610556565b005b5f60015f8373ffffffffffffffffffffffffffffffffffffffff1673ffffffffffffffffffffffffffffffffffffffff1681526020019081526020015f205f9054906101000a900460ff169050919050565b5f6002826040516101859190610a8d565b90815260200160405180910390205f0180546101a090610ad0565b9050116101e2576040517f08c379a00000000000000000000000000000000000000000000000000000000081526004016101d990610b5a565b60405180910390fd5b5f6003846040516101f39190610a8d565b9081526020016040518091039020905083815f0190816102139190610d21565b5085816001015f6101000a8154816cffffffffffffffffffffffffff02191690836cffffffffffffffffffffffffff1602179055508481600101600d6101000a8154816cffffffffffffffffffffffffff02191690836cffffffffffffffffffffffffff1602179055508281600301908161028e9190610d21565b508060020182908060018154018082558091505060019003905f5260205f20015f9091909190915090816102c29190610d21565b50505050505050565b5f6002836040516102dc9190610a8d565b90815260200160405180910390205f0180546102f790610ad0565b905011610339576040517f08c379a000000000000000000000000000000000000000000000000000000000815260040161033090610e3a565b60405180910390fd5b5f60038260405161034a9190610a8d565b90815260200160405180910390205f01805461036590610ad0565b9050116103a7576040517f08c379a000000000000000000000000000000000000000000000000000000000815260040161039e90610ea2565b60405180910390fd5b6003816040516103b79190610a8d565b908152602001604051809103902060020182908060018154018082558091505060019003905f5260205f20015f9091909190915090816103f79190610d21565b505050565b5f5f9054906101000a900473ffffffffffffffffffffffffffffffffffffffff1673ffffffffffffffffffffffffffffffffffffffff163373ffffffffffffffffffffffffffffffffffffffff16148061049c575060015f3373ffffffffffffffffffffffffffffffffffffffff1673ffffffffffffffffffffffffffffffffffffffff1681526020019081526020015f205f9054906101000a900460ff165b6104db576040517f08c379a00000000000000000000000000000000000000000000000000000000081526004016104d290610f30565b60405180910390fd5b6001805f8373ffffffffffffffffffffffffffffffffffffffff1673ffffffffffffffffffffffffffffffffffffffff1681526020019081526020015f205f6101000a81548160ff02191690831515021790555050565b5f5f9054906101000a900473ffffffffffffffffffffffffffffffffffffffff1681565b60405180608001604052808481526020018381526020018281526020015f8152506002846040516105879190610a8d565b90815260200160405180910390205f820151815f0190816105a89190610d21565b5060208201518160010190816105be9190610d21565b5060408201518160020190816105d49190610d21565b5060608201518160030155905050505050565b5f604051905090565b5f5ffd5b5f5ffd5b5f73ffffffffffffffffffffffffffffffffffffffff82169050919050565b5f610621826105f8565b9050919050565b61063181610617565b811461063b575f5ffd5b50565b5f8135905061064c81610628565b92915050565b5f60208284031215610667576106666105f0565b5b5f6106748482850161063e565b91505092915050565b5f8115159050919050565b6106918161067d565b82525050565b5f6020820190506106aa5f830184610688565b92915050565b5f6cffffffffffffffffffffffffff82169050919050565b6106d1816106b0565b81146106db575f5ffd5b50565b5f813590506106ec816106c8565b92915050565b5f5ffd5b5f5ffd5b5f601f19601f8301169050919050565b7f4e487b71000000000000000000000000000000000000000000000000000000005f52604160045260245ffd5b610740826106fa565b810181811067ffffffffffffffff8211171561075f5761075e61070a565b5b80604052505050565b5f6107716105e7565b905061077d8282610737565b919050565b5f67ffffffffffffffff82111561079c5761079b61070a565b5b6107a5826106fa565b9050602081019050919050565b828183375f83830152505050565b5f6107d26107cd84610782565b610768565b9050828152602081018484840111156107ee576107ed6106f6565b5b6107f98482856107b2565b509392505050565b5f82601f830112610815576108146106f2565b5b81356108258482602086016107c0565b91505092915050565b5f5f5f5f5f60a08688031215610847576108466105f0565b5b5f610854888289016106de565b9550506020610865888289016106de565b945050604086013567ffffffffffffffff811115610886576108856105f4565b5b61089288828901610801565b935050606086013567ffffffffffffffff8111156108b3576108b26105f4565b5b6108bf88828901610801565b925050608086013567ffffffffffffffff8111156108e0576108df6105f4565b5b6108ec88828901610801565b9150509295509295909350565b5f5f6040838503121561090f5761090e6105f0565b5b5f83013567ffffffffffffffff81111561092c5761092b6105f4565b5b61093885828601610801565b925050602083013567ffffffffffffffff811115610959576109586105f4565b5b61096585828601610801565b9150509250929050565b61097881610617565b82525050565b5f6020820190506109915f83018461096f565b92915050565b5f5f5f606084860312156109ae576109ad6105f0565b5b5f84013567ffffffffffffffff8111156109cb576109ca6105f4565b5b6109d786828701610801565b935050602084013567ffffffffffffffff8111156109f8576109f76105f4565b5b610a0486828701610801565b925050604084013567ffffffffffffffff811115610a2557610a246105f4565b5b610a3186828701610801565b9150509250925092565b5f81519050919050565b5f81905092915050565b8281835e5f83830152505050565b5f610a6782610a3b565b610a718185610a45565b9350610a81818560208601610a4f565b80840191505092915050565b5f610a988284610a5d565b915081905092915050565b7f4e487b71000000000000000000000000000000000000000000000000000000005f52602260045260245ffd5b5f6002820490506001821680610ae757607f821691505b602082108103610afa57610af9610aa3565b5b50919050565b5f82825260208201905092915050565b7f696e697461696c20646f6573206e6f74206578697374000000000000000000005f82015250565b5f610b44601683610b00565b9150610b4f82610b10565b602082019050919050565b5f6020820190508181035f830152610b7181610b38565b9050919050565b5f819050815f5260205f209050919050565b5f6020601f8301049050919050565b5f82821b905092915050565b5f60088302610bd47fffffffffffffffffffffffffffffffffffffffffffffffffffffffffffffffff82610b99565b610bde8683610b99565b95508019841693508086168417925050509392505050565b5f819050919050565b5f819050919050565b5f610c22610c1d610c1884610bf6565b610bff565b610bf6565b9050919050565b5f819050919050565b610c3b83610c08565b610c4f610c4782610c29565b848454610ba5565b825550505050565b5f5f905090565b610c66610c57565b610c71818484610c32565b505050565b5b81811015610c9457610c895f82610c5e565b600181019050610c77565b5050565b601f821115610cd957610caa81610b78565b610cb384610b8a565b81016020851015610cc2578190505b610cd6610cce85610b8a565b830182610c76565b50505b505050565b5f82821c905092915050565b5f610cf95f1984600802610cde565b1980831691505092915050565b5f610d118383610cea565b9150826002028217905092915050565b610d2a82610a3b565b67ffffffffffffffff811115610d4357610d4261070a565b5b610d4d8254610ad0565b610d58828285610c98565b5f60209050601f831160018114610d89575f8415610d77578287015190505b610d818582610d06565b865550610de8565b601f198416610d9786610b78565b5f5b82811015610dbe57848901518255600182019150602085019450602081019050610d99565b86831015610ddb5784890151610dd7601f891682610cea565b8355505b6001600288020188555050505b505050505050565b7f43616e64696461746520646f6573206e6f7420657869737400000000000000005f82015250565b5f610e24601883610b00565b9150610e2f82610df0565b602082019050919050565b5f6020820190508181035f830152610e5181610e18565b9050919050565b7f43616d706169676e20646f6573206e6f742065786973740000000000000000005f82015250565b5f610e8c601783610b00565b9150610e9782610e58565b602082019050919050565b5f6020820190508181035f830152610eb981610e80565b9050919050565b7f4f6e6c79206f776e6572206f722061646d696e732063616e206d616b652061645f8201527f6d696e0000000000000000000000000000000000000000000000000000000000602082015250565b5f610f1a602383610b00565b9150610f2582610ec0565b604082019050919050565b5f6020820190508181035f830152610f4781610f0e565b905091905056fea264697066735822122007c47b58b265f15f92f74df990cc60793738c8f4589a04b5ac2c09bcd240d46064736f6c634300081e0033","linkReferences":{}},"methodIdentifiers":{"addCampaignCandidate(string,string)":"31d493f1","addCandidate(string,string,string)":"ad71f8dc","createCampaign(uint104,uint104,string,string,string)":"24e68e61","isAdmin(address)":"24d7806c","makeAdmin(address)":"472905ca","owner()":"8da5cb5b"},"id":52}